{
  "_format": "hh-sol-artifact-1",
  "contractName": "EscrowAgent",
  "sourceName": "contracts/EscrowAgent.sol",
  "abi": [
    {
      "inputs": [],
      "stateMutability": "nonpayable",
      "type": "constructor"
    },
    {
      "anonymous": false,
      "inputs": [
        {
          "indexed": false,
          "internalType": "uint256",
          "name": "id",
          "type": "uint256"
        },
        {
          "indexed": false,
          "internalType": "uint256",
          "name": "timestamp",
          "type": "uint256"
        }
      ],
      "name": "EscrowApproved",
      "type": "event"
    },
    {
      "anonymous": false,
      "inputs": [
        {
          "indexed": false,
          "internalType": "uint256",
          "name": "id",
          "type": "uint256"
        },
        {
          "indexed": false,
          "internalType": "uint256",
          "name": "timestamp",
          "type": "uint256"
        }
      ],
      "name": "EscrowArchived",
      "type": "event"
    },
    {
      "anonymous": false,
      "inputs": [
        {
          "indexed": false,
          "internalType": "uint256",
          "name": "id",
          "type": "uint256"
        },
        {
          "indexed": false,
          "internalType": "uint256",
          "name": "timestamp",
          "type": "uint256"
        }
      ],
      "name": "EscrowDeposited",
      "type": "event"
    },
    {
      "anonymous": false,
      "inputs": [
        {
          "indexed": false,
          "internalType": "uint256",
          "name": "id",
          "type": "uint256"
        },
        {
          "indexed": false,
          "internalType": "address",
          "name": "seller",
          "type": "address"
        },
        {
          "indexed": false,
          "internalType": "address",
          "name": "buyer",
          "type": "address"
        },
        {
          "indexed": false,
          "internalType": "uint256",
          "name": "depositAmount",
          "type": "uint256"
        },
        {
          "indexed": false,
          "internalType": "enum EscrowAgent.EscrowStatus",
          "name": "status",
          "type": "uint8"
        },
        {
          "indexed": false,
          "internalType": "uint8",
          "name": "agentFeePercentage",
          "type": "uint8"
        },
        {
          "indexed": false,
          "internalType": "string",
          "name": "description",
          "type": "string"
        },
        {
          "indexed": false,
          "internalType": "uint256",
          "name": "createdAt",
          "type": "uint256"
        },
        {
          "indexed": false,
          "internalType": "uint256",
          "name": "updatedAt",
          "type": "uint256"
        }
      ],
      "name": "EscrowInitiated",
      "type": "event"
    },
    {
      "anonymous": false,
      "inputs": [
        {
          "indexed": false,
          "internalType": "uint256",
          "name": "id",
          "type": "uint256"
        },
        {
          "indexed": false,
          "internalType": "uint256",
          "name": "timestamp",
          "type": "uint256"
        }
      ],
      "name": "EscrowRejected",
      "type": "event"
    },
    {
      "inputs": [],
      "name": "agent",
      "outputs": [
        {
          "internalType": "address",
          "name": "",
          "type": "address"
        }
      ],
      "stateMutability": "view",
      "type": "function"
    },
    {
      "inputs": [],
      "name": "agentFeePercentage",
      "outputs": [
        {
          "internalType": "uint8",
          "name": "",
          "type": "uint8"
        }
      ],
      "stateMutability": "view",
      "type": "function"
    },
    {
      "inputs": [
        {
          "internalType": "uint256",
          "name": "_escrowId",
          "type": "uint256"
        }
      ],
      "name": "approveEscrow",
      "outputs": [],
      "stateMutability": "nonpayable",
      "type": "function"
    },
    {
      "inputs": [
        {
          "internalType": "uint256",
          "name": "_escrowId",
          "type": "uint256"
        }
      ],
      "name": "archiveEscrow",
      "outputs": [],
      "stateMutability": "nonpayable",
      "type": "function"
    },
    {
      "inputs": [
        {
          "internalType": "address",
          "name": "_newAgent",
          "type": "address"
        }
      ],
      "name": "changeAgent",
      "outputs": [],
      "stateMutability": "nonpayable",
      "type": "function"
    },
    {
      "inputs": [
        {
          "internalType": "uint8",
          "name": "_newFeePercentage",
          "type": "uint8"
        }
      ],
      "name": "changeAgentFeePercentage",
      "outputs": [],
      "stateMutability": "nonpayable",
      "type": "function"
    },
    {
      "inputs": [
        {
          "internalType": "uint256",
          "name": "_escrowId",
          "type": "uint256"
        }
      ],
      "name": "depositEscrow",
      "outputs": [],
      "stateMutability": "payable",
      "type": "function"
    },
    {
      "inputs": [
        {
          "internalType": "uint256",
          "name": "",
          "type": "uint256"
        }
      ],
      "name": "escrows",
      "outputs": [
        {
          "internalType": "uint256",
          "name": "id",
          "type": "uint256"
        },
        {
          "internalType": "address",
          "name": "seller",
          "type": "address"
        },
        {
          "internalType": "address",
          "name": "buyer",
          "type": "address"
        },
        {
          "internalType": "uint256",
          "name": "depositAmount",
          "type": "uint256"
        },
        {
          "internalType": "enum EscrowAgent.EscrowStatus",
          "name": "status",
          "type": "uint8"
        },
        {
          "internalType": "uint8",
          "name": "agentFeePercentage",
          "type": "uint8"
        },
        {
          "internalType": "string",
          "name": "description",
          "type": "string"
        },
        {
          "internalType": "uint256",
          "name": "createdAt",
          "type": "uint256"
        },
        {
          "internalType": "uint256",
          "name": "updatedAt",
          "type": "uint256"
        }
      ],
      "stateMutability": "view",
      "type": "function"
    },
    {
      "inputs": [],
      "name": "getAllEscrows",
      "outputs": [
        {
          "components": [
            {
              "internalType": "uint256",
              "name": "id",
              "type": "uint256"
            },
            {
              "internalType": "address",
              "name": "seller",
              "type": "address"
            },
            {
              "internalType": "address",
              "name": "buyer",
              "type": "address"
            },
            {
              "internalType": "uint256",
              "name": "depositAmount",
              "type": "uint256"
            },
            {
              "internalType": "enum EscrowAgent.EscrowStatus",
              "name": "status",
              "type": "uint8"
            },
            {
              "internalType": "uint8",
              "name": "agentFeePercentage",
              "type": "uint8"
            },
            {
              "internalType": "string",
              "name": "description",
              "type": "string"
            },
            {
              "internalType": "uint256",
              "name": "createdAt",
              "type": "uint256"
            },
            {
              "internalType": "uint256",
              "name": "updatedAt",
              "type": "uint256"
            }
          ],
          "internalType": "struct EscrowAgent.Escrow[]",
          "name": "",
          "type": "tuple[]"
        }
      ],
      "stateMutability": "view",
      "type": "function"
    },
    {
      "inputs": [
        {
          "internalType": "uint256",
          "name": "_escrowId",
          "type": "uint256"
        }
      ],
      "name": "getEscrowById",
      "outputs": [
        {
          "components": [
            {
              "internalType": "uint256",
              "name": "id",
              "type": "uint256"
            },
            {
              "internalType": "address",
              "name": "seller",
              "type": "address"
            },
            {
              "internalType": "address",
              "name": "buyer",
              "type": "address"
            },
            {
              "internalType": "uint256",
              "name": "depositAmount",
              "type": "uint256"
            },
            {
              "internalType": "enum EscrowAgent.EscrowStatus",
              "name": "status",
              "type": "uint8"
            },
            {
              "internalType": "uint8",
              "name": "agentFeePercentage",
              "type": "uint8"
            },
            {
              "internalType": "string",
              "name": "description",
              "type": "string"
            },
            {
              "internalType": "uint256",
              "name": "createdAt",
              "type": "uint256"
            },
            {
              "internalType": "uint256",
              "name": "updatedAt",
              "type": "uint256"
            }
          ],
          "internalType": "struct EscrowAgent.Escrow",
          "name": "",
          "type": "tuple"
        }
      ],
      "stateMutability": "view",
      "type": "function"
    },
    {
      "inputs": [
        {
          "internalType": "address",
          "name": "_seller",
          "type": "address"
        },
        {
          "internalType": "address",
          "name": "_buyer",
          "type": "address"
        },
        {
          "internalType": "uint256",
          "name": "_depositAmount",
          "type": "uint256"
        },
        {
          "internalType": "string",
          "name": "_description",
          "type": "string"
        }
      ],
      "name": "initiateEscrow",
      "outputs": [],
      "stateMutability": "nonpayable",
      "type": "function"
    },
    {
      "inputs": [
        {
          "internalType": "uint256",
          "name": "_escrowId",
          "type": "uint256"
        }
      ],
      "name": "rejectEscrow",
      "outputs": [],
      "stateMutability": "nonpayable",
      "type": "function"
    },
    {
      "inputs": [],
      "name": "withdrawFunds",
      "outputs": [],
      "stateMutability": "nonpayable",
      "type": "function"
    },
    {
      "inputs": [],
      "name": "withdrawableFunds",
      "outputs": [
        {
          "internalType": "uint256",
          "name": "",
          "type": "uint256"
        }
      ],
      "stateMutability": "view",
      "type": "function"
    }
  ],
  "bytecode": "0x6080604052600a600060146101000a81548160ff021916908360ff16021790555034801561002c57600080fd5b50336000806101000a81548173ffffffffffffffffffffffffffffffffffffffff021916908373ffffffffffffffffffffffffffffffffffffffff160217905550612b258061007c6000396000f3fe6080604052600436106100dd5760003560e01c806369e36beb1161007f5780639a6ac36f116100595780639a6ac36f1461029c578063cb991efe146102c7578063e617ea5c146102e3578063f5ff5c761461030e576100dd565b806369e36beb1461021f57806375aab3311461024a5780639818953914610273576100dd565b806324600fc3116100bb57806324600fc31461018d5780633416a006146101a4578063398ab773146101cd57806357f032e7146101f6576100dd565b8063012f52ee146100e257806303fce7ef1461012757806320ca041814610150575b600080fd5b3480156100ee57600080fd5b50610109600480360381019061010491906118f3565b610339565b60405161011e99989796959493929190611a93565b60405180910390f35b34801561013357600080fd5b5061014e600480360381019061014991906118f3565b610479565b005b34801561015c57600080fd5b50610177600480360381019061017291906118f3565b610746565b6040516101849190611c72565b60405180910390f35b34801561019957600080fd5b506101a2610941565b005b3480156101b057600080fd5b506101cb60048036038101906101c69190611df5565b610aa9565b005b3480156101d957600080fd5b506101f460048036038101906101ef91906118f3565b610df2565b005b34801561020257600080fd5b5061021d60048036038101906102189190611e78565b610f91565b005b34801561022b57600080fd5b50610234611062565b6040516102419190611ea5565b60405180910390f35b34801561025657600080fd5b50610271600480360381019061026c91906118f3565b611075565b005b34801561027f57600080fd5b5061029a60048036038101906102959190611eec565b6112e9565b005b3480156102a857600080fd5b506102b16113eb565b6040516102be91906120a0565b60405180910390f35b6102e160048036038101906102dc91906118f3565b611609565b005b3480156102ef57600080fd5b506102f86117f2565b60405161030591906120c2565b60405180910390f35b34801561031a57600080fd5b506103236117f8565b60405161033091906120dd565b60405180910390f35b6002818154811061034957600080fd5b90600052602060002090600802016000915090508060000154908060010160009054906101000a900473ffffffffffffffffffffffffffffffffffffffff16908060020160009054906101000a900473ffffffffffffffffffffffffffffffffffffffff16908060030154908060040160009054906101000a900460ff16908060040160019054906101000a900460ff16908060050180546103ea90612127565b80601f016020809104026020016040519081016040528092919081815260200182805461041690612127565b80156104635780601f1061043857610100808354040283529160200191610463565b820191906000526020600020905b81548152906001019060200180831161044657829003601f168201915b5050505050908060060154908060070154905089565b60008054906101000a900473ffffffffffffffffffffffffffffffffffffffff1673ffffffffffffffffffffffffffffffffffffffff163373ffffffffffffffffffffffffffffffffffffffff1614610507576040517f08c379a00000000000000000000000000000000000000000000000000000000081526004016104fe906121ca565b60405180910390fd5b60006002828154811061051d5761051c6121ea565b5b906000526020600020906008020190506001600481111561054157610540611970565b5b8160040160009054906101000a900460ff16600481111561056557610564611970565b5b146105a5576040517f08c379a000000000000000000000000000000000000000000000000000000000815260040161059c9061228b565b60405180910390fd5b600060648260040160019054906101000a900460ff1660ff1683600301546105cd91906122da565b6105d7919061234b565b905060008260010160009054906101000a900473ffffffffffffffffffffffffffffffffffffffff1673ffffffffffffffffffffffffffffffffffffffff16828460030154610626919061237c565b604051610632906123e1565b60006040518083038185875af1925050503d806000811461066f576040519150601f19603f3d011682016040523d82523d6000602084013e610674565b606091505b50509050806106b8576040517f08c379a00000000000000000000000000000000000000000000000000000000081526004016106af90612442565b60405180910390fd5b60028360040160006101000a81548160ff021916908360048111156106e0576106df611970565b5b021790555042836007018190555081600160008282546107009190612462565b925050819055507f599da1658702c24a94818de06b47dcb625541f89b8d6077f376527447de8aa5e8442604051610738929190612496565b60405180910390a150505050565b61074e61181c565b60028281548110610762576107616121ea565b5b906000526020600020906008020160405180610120016040529081600082015481526020016001820160009054906101000a900473ffffffffffffffffffffffffffffffffffffffff1673ffffffffffffffffffffffffffffffffffffffff1673ffffffffffffffffffffffffffffffffffffffff1681526020016002820160009054906101000a900473ffffffffffffffffffffffffffffffffffffffff1673ffffffffffffffffffffffffffffffffffffffff1673ffffffffffffffffffffffffffffffffffffffff168152602001600382015481526020016004820160009054906101000a900460ff16600481111561086157610860611970565b5b600481111561087357610872611970565b5b81526020016004820160019054906101000a900460ff1660ff1660ff1681526020016005820180546108a490612127565b80601f01602080910402602001604051908101604052809291908181526020018280546108d090612127565b801561091d5780601f106108f25761010080835404028352916020019161091d565b820191906000526020600020905b81548152906001019060200180831161090057829003601f168201915b50505050508152602001600682015481526020016007820154815250509050919050565b60008054906101000a900473ffffffffffffffffffffffffffffffffffffffff1673ffffffffffffffffffffffffffffffffffffffff163373ffffffffffffffffffffffffffffffffffffffff16146109cf576040517f08c379a00000000000000000000000000000000000000000000000000000000081526004016109c6906121ca565b60405180910390fd5b60008060009054906101000a900473ffffffffffffffffffffffffffffffffffffffff1673ffffffffffffffffffffffffffffffffffffffff16600154604051610a18906123e1565b60006040518083038185875af1925050503d8060008114610a55576040519150601f19603f3d011682016040523d82523d6000602084013e610a5a565b606091505b5050905080610a9e576040517f08c379a0000000000000000000000000000000000000000000000000000000008152600401610a9590612442565b60405180910390fd5b600060018190555050565b60008054906101000a900473ffffffffffffffffffffffffffffffffffffffff1673ffffffffffffffffffffffffffffffffffffffff163373ffffffffffffffffffffffffffffffffffffffff1614610b37576040517f08c379a0000000000000000000000000000000000000000000000000000000008152600401610b2e906121ca565b60405180910390fd5b83838073ffffffffffffffffffffffffffffffffffffffff168273ffffffffffffffffffffffffffffffffffffffff1603610ba7576040517f08c379a0000000000000000000000000000000000000000000000000000000008152600401610b9e90612531565b60405180910390fd5b6000600280549050905060006040518061012001604052808381526020018973ffffffffffffffffffffffffffffffffffffffff1681526020018873ffffffffffffffffffffffffffffffffffffffff16815260200187815260200160006004811115610c1757610c16611970565b5b8152602001600060149054906101000a900460ff1660ff16815260200186815260200142815260200142815250905060028190806001815401808255809150506001900390600052602060002090600802016000909190919091506000820151816000015560208201518160010160006101000a81548173ffffffffffffffffffffffffffffffffffffffff021916908373ffffffffffffffffffffffffffffffffffffffff16021790555060408201518160020160006101000a81548173ffffffffffffffffffffffffffffffffffffffff021916908373ffffffffffffffffffffffffffffffffffffffff1602179055506060820151816003015560808201518160040160006101000a81548160ff02191690836004811115610d3f57610d3e611970565b5b021790555060a08201518160040160016101000a81548160ff021916908360ff16021790555060c0820151816005019081610d7a91906126fd565b5060e08201518160060155610100820151816007015550507f28a12777f585b698de880b91f9c278768de172e5d74f3f5202198beb60e6d0768289898960008060149054906101000a900460ff168b4242604051610de099989796959493929190611a93565b60405180910390a15050505050505050565b60008054906101000a900473ffffffffffffffffffffffffffffffffffffffff1673ffffffffffffffffffffffffffffffffffffffff163373ffffffffffffffffffffffffffffffffffffffff1614610e80576040517f08c379a0000000000000000000000000000000000000000000000000000000008152600401610e77906121ca565b60405180910390fd5b600060028281548110610e9657610e956121ea565b5b9060005260206000209060080201905060006004811115610eba57610eb9611970565b5b8160040160009054906101000a900460ff166004811115610ede57610edd611970565b5b14610f1e576040517f08c379a0000000000000000000000000000000000000000000000000000000008152600401610f159061281b565b60405180910390fd5b60048160040160006101000a81548160ff02191690836004811115610f4657610f45611970565b5b02179055504281600701819055507ff7f67bfa0cb6f4f063d06fc242568b74a8e5cd03190e3b30a19fc552e0e46cee8242604051610f85929190612496565b60405180910390a15050565b60008054906101000a900473ffffffffffffffffffffffffffffffffffffffff1673ffffffffffffffffffffffffffffffffffffffff163373ffffffffffffffffffffffffffffffffffffffff161461101f576040517f08c379a0000000000000000000000000000000000000000000000000000000008152600401611016906121ca565b60405180910390fd5b806000806101000a81548173ffffffffffffffffffffffffffffffffffffffff021916908373ffffffffffffffffffffffffffffffffffffffff16021790555050565b600060149054906101000a900460ff1681565b60008054906101000a900473ffffffffffffffffffffffffffffffffffffffff1673ffffffffffffffffffffffffffffffffffffffff163373ffffffffffffffffffffffffffffffffffffffff1614611103576040517f08c379a00000000000000000000000000000000000000000000000000000000081526004016110fa906121ca565b60405180910390fd5b600060028281548110611119576111186121ea565b5b906000526020600020906008020190506001600481111561113d5761113c611970565b5b8160040160009054906101000a900460ff16600481111561116157611160611970565b5b146111a1576040517f08c379a0000000000000000000000000000000000000000000000000000000008152600401611198906128ad565b60405180910390fd5b60008160020160009054906101000a900473ffffffffffffffffffffffffffffffffffffffff1673ffffffffffffffffffffffffffffffffffffffff1682600301546040516111ef906123e1565b60006040518083038185875af1925050503d806000811461122c576040519150601f19603f3d011682016040523d82523d6000602084013e611231565b606091505b5050905080611275576040517f08c379a000000000000000000000000000000000000000000000000000000000815260040161126c90612442565b60405180910390fd5b60038260040160006101000a81548160ff0219169083600481111561129d5761129c611970565b5b02179055504282600701819055507ffbb49e2b5bd06a60b782133381f3685f5bbea5e8ae7c46023169cd734d8bc2ac83426040516112dc929190612496565b60405180910390a1505050565b60008054906101000a900473ffffffffffffffffffffffffffffffffffffffff1673ffffffffffffffffffffffffffffffffffffffff163373ffffffffffffffffffffffffffffffffffffffff1614611377576040517f08c379a000000000000000000000000000000000000000000000000000000000815260040161136e906121ca565b60405180910390fd5b60008160ff161015801561138e575060648160ff16105b6113cd576040517f08c379a00000000000000000000000000000000000000000000000000000000081526004016113c49061293f565b60405180910390fd5b80600060146101000a81548160ff021916908360ff16021790555050565b60606002805480602002602001604051908101604052809291908181526020016000905b82821015611600578382906000526020600020906008020160405180610120016040529081600082015481526020016001820160009054906101000a900473ffffffffffffffffffffffffffffffffffffffff1673ffffffffffffffffffffffffffffffffffffffff1673ffffffffffffffffffffffffffffffffffffffff1681526020016002820160009054906101000a900473ffffffffffffffffffffffffffffffffffffffff1673ffffffffffffffffffffffffffffffffffffffff1673ffffffffffffffffffffffffffffffffffffffff168152602001600382015481526020016004820160009054906101000a900460ff16600481111561151857611517611970565b5b600481111561152a57611529611970565b5b81526020016004820160019054906101000a900460ff1660ff1660ff16815260200160058201805461155b90612127565b80601f016020809104026020016040519081016040528092919081815260200182805461158790612127565b80156115d45780601f106115a9576101008083540402835291602001916115d4565b820191906000526020600020905b8154815290600101906020018083116115b757829003601f168201915b50505050508152602001600682015481526020016007820154815250508152602001906001019061140f565b50505050905090565b60006002828154811061161f5761161e6121ea565b5b906000526020600020906008020190508060020160009054906101000a900473ffffffffffffffffffffffffffffffffffffffff1673ffffffffffffffffffffffffffffffffffffffff163373ffffffffffffffffffffffffffffffffffffffff16146116c1576040517f08c379a00000000000000000000000000000000000000000000000000000000081526004016116b8906129ab565b60405180910390fd5b600060048111156116d5576116d4611970565b5b8160040160009054906101000a900460ff1660048111156116f9576116f8611970565b5b14611739576040517f08c379a000000000000000000000000000000000000000000000000000000000815260040161173090612a3d565b60405180910390fd5b8060030154341461177f576040517f08c379a000000000000000000000000000000000000000000000000000000000815260040161177690612acf565b60405180910390fd5b60018160040160006101000a81548160ff021916908360048111156117a7576117a6611970565b5b02179055504281600701819055507fd3c221d5b0aba10ecbafdafc16a948672d7d45a8dcb069038786f81a75e0657582426040516117e6929190612496565b60405180910390a15050565b60015481565b60008054906101000a900473ffffffffffffffffffffffffffffffffffffffff1681565b60405180610120016040528060008152602001600073ffffffffffffffffffffffffffffffffffffffff168152602001600073ffffffffffffffffffffffffffffffffffffffff168152602001600081526020016000600481111561188457611883611970565b5b8152602001600060ff1681526020016060815260200160008152602001600081525090565b6000604051905090565b600080fd5b600080fd5b6000819050919050565b6118d0816118bd565b81146118db57600080fd5b50565b6000813590506118ed816118c7565b92915050565b600060208284031215611909576119086118b3565b5b6000611917848285016118de565b91505092915050565b611929816118bd565b82525050565b600073ffffffffffffffffffffffffffffffffffffffff82169050919050565b600061195a8261192f565b9050919050565b61196a8161194f565b82525050565b7f4e487b7100000000000000000000000000000000000000000000000000000000600052602160045260246000fd5b600581106119b0576119af611970565b5b50565b60008190506119c18261199f565b919050565b60006119d1826119b3565b9050919050565b6119e1816119c6565b82525050565b600060ff82169050919050565b6119fd816119e7565b82525050565b600081519050919050565b600082825260208201905092915050565b60005b83811015611a3d578082015181840152602081019050611a22565b60008484015250505050565b6000601f19601f8301169050919050565b6000611a6582611a03565b611a6f8185611a0e565b9350611a7f818560208601611a1f565b611a8881611a49565b840191505092915050565b600061012082019050611aa9600083018c611920565b611ab6602083018b611961565b611ac3604083018a611961565b611ad06060830189611920565b611add60808301886119d8565b611aea60a08301876119f4565b81810360c0830152611afc8186611a5a565b9050611b0b60e0830185611920565b611b19610100830184611920565b9a9950505050505050505050565b611b30816118bd565b82525050565b611b3f8161194f565b82525050565b611b4e816119c6565b82525050565b611b5d816119e7565b82525050565b600082825260208201905092915050565b6000611b7f82611a03565b611b898185611b63565b9350611b99818560208601611a1f565b611ba281611a49565b840191505092915050565b600061012083016000830151611bc66000860182611b27565b506020830151611bd96020860182611b36565b506040830151611bec6040860182611b36565b506060830151611bff6060860182611b27565b506080830151611c126080860182611b45565b5060a0830151611c2560a0860182611b54565b5060c083015184820360c0860152611c3d8282611b74565b91505060e0830151611c5260e0860182611b27565b50610100830151611c67610100860182611b27565b508091505092915050565b60006020820190508181036000830152611c8c8184611bad565b905092915050565b611c9d8161194f565b8114611ca857600080fd5b50565b600081359050611cba81611c94565b92915050565b600080fd5b600080fd5b7f4e487b7100000000000000000000000000000000000000000000000000000000600052604160045260246000fd5b611d0282611a49565b810181811067ffffffffffffffff82111715611d2157611d20611cca565b5b80604052505050565b6000611d346118a9565b9050611d408282611cf9565b919050565b600067ffffffffffffffff821115611d6057611d5f611cca565b5b611d6982611a49565b9050602081019050919050565b82818337600083830152505050565b6000611d98611d9384611d45565b611d2a565b905082815260208101848484011115611db457611db3611cc5565b5b611dbf848285611d76565b509392505050565b600082601f830112611ddc57611ddb611cc0565b5b8135611dec848260208601611d85565b91505092915050565b60008060008060808587031215611e0f57611e0e6118b3565b5b6000611e1d87828801611cab565b9450506020611e2e87828801611cab565b9350506040611e3f878288016118de565b925050606085013567ffffffffffffffff811115611e6057611e5f6118b8565b5b611e6c87828801611dc7565b91505092959194509250565b600060208284031215611e8e57611e8d6118b3565b5b6000611e9c84828501611cab565b91505092915050565b6000602082019050611eba60008301846119f4565b92915050565b611ec9816119e7565b8114611ed457600080fd5b50565b600081359050611ee681611ec0565b92915050565b600060208284031215611f0257611f016118b3565b5b6000611f1084828501611ed7565b91505092915050565b600081519050919050565b600082825260208201905092915050565b6000819050602082019050919050565b600061012083016000830151611f5e6000860182611b27565b506020830151611f716020860182611b36565b506040830151611f846040860182611b36565b506060830151611f976060860182611b27565b506080830151611faa6080860182611b45565b5060a0830151611fbd60a0860182611b54565b5060c083015184820360c0860152611fd58282611b74565b91505060e0830151611fea60e0860182611b27565b50610100830151611fff610100860182611b27565b508091505092915050565b60006120168383611f45565b905092915050565b6000602082019050919050565b600061203682611f19565b6120408185611f24565b93508360208202850161205285611f35565b8060005b8581101561208e578484038952815161206f858261200a565b945061207a8361201e565b925060208a01995050600181019050612056565b50829750879550505050505092915050565b600060208201905081810360008301526120ba818461202b565b905092915050565b60006020820190506120d76000830184611920565b92915050565b60006020820190506120f26000830184611961565b92915050565b7f4e487b7100000000000000000000000000000000000000000000000000000000600052602260045260246000fd5b6000600282049050600182168061213f57607f821691505b602082108103612152576121516120f8565b5b50919050565b7f4f6e6c79204167656e742063616e2063616c6c20746869732066756e6374696f60008201527f6e00000000000000000000000000000000000000000000000000000000000000602082015250565b60006121b4602183611a0e565b91506121bf82612158565b604082019050919050565b600060208201905081810360008301526121e3816121a7565b9050919050565b7f4e487b7100000000000000000000000000000000000000000000000000000000600052603260045260246000fd5b7f596f752063616e206f6e6c7920617070726f766520457363726f77207769746860008201527f206465706f736974656420737461747573000000000000000000000000000000602082015250565b6000612275603183611a0e565b915061228082612219565b604082019050919050565b600060208201905081810360008301526122a481612268565b9050919050565b7f4e487b7100000000000000000000000000000000000000000000000000000000600052601160045260246000fd5b60006122e5826118bd565b91506122f0836118bd565b92508282026122fe816118bd565b91508282048414831517612315576123146122ab565b5b5092915050565b7f4e487b7100000000000000000000000000000000000000000000000000000000600052601260045260246000fd5b6000612356826118bd565b9150612361836118bd565b9250826123715761237061231c565b5b828204905092915050565b6000612387826118bd565b9150612392836118bd565b92508282039050818111156123aa576123a96122ab565b5b92915050565b600081905092915050565b50565b60006123cb6000836123b0565b91506123d6826123bb565b600082019050919050565b60006123ec826123be565b9150819050919050565b7f4661696c656420746f2073656e64204574686572000000000000000000000000600082015250565b600061242c601483611a0e565b9150612437826123f6565b602082019050919050565b6000602082019050818103600083015261245b8161241f565b9050919050565b600061246d826118bd565b9150612478836118bd565b92508282019050808211156124905761248f6122ab565b5b92915050565b60006040820190506124ab6000830185611920565b6124b86020830184611920565b9392505050565b7f427579657220616e642053656c6c65722073686f756c6420626520446966666560008201527f72656e7400000000000000000000000000000000000000000000000000000000602082015250565b600061251b602483611a0e565b9150612526826124bf565b604082019050919050565b6000602082019050818103600083015261254a8161250e565b9050919050565b60008190508160005260206000209050919050565b60006020601f8301049050919050565b600082821b905092915050565b6000600883026125b37fffffffffffffffffffffffffffffffffffffffffffffffffffffffffffffffff82612576565b6125bd8683612576565b95508019841693508086168417925050509392505050565b6000819050919050565b60006125fa6125f56125f0846118bd565b6125d5565b6118bd565b9050919050565b6000819050919050565b612614836125df565b61262861262082612601565b848454612583565b825550505050565b600090565b61263d612630565b61264881848461260b565b505050565b5b8181101561266c57612661600082612635565b60018101905061264e565b5050565b601f8211156126b15761268281612551565b61268b84612566565b8101602085101561269a578190505b6126ae6126a685612566565b83018261264d565b50505b505050565b600082821c905092915050565b60006126d4600019846008026126b6565b1980831691505092915050565b60006126ed83836126c3565b9150826002028217905092915050565b61270682611a03565b67ffffffffffffffff81111561271f5761271e611cca565b5b6127298254612127565b612734828285612670565b600060209050601f8311600181146127675760008415612755578287015190505b61275f85826126e1565b8655506127c7565b601f19841661277586612551565b60005b8281101561279d57848901518255600182019150602085019450602081019050612778565b868310156127ba57848901516127b6601f8916826126c3565b8355505b6001600288020188555050505b505050505050565b7f43616e277420617263686976652061637469766520457363726f770000000000600082015250565b6000612805601b83611a0e565b9150612810826127cf565b602082019050919050565b60006020820190508181036000830152612834816127f8565b9050919050565b7f596f752063616e206f6e6c792072656a65637420457363726f7720776974682060008201527f6465706f73697465642073746174757300000000000000000000000000000000602082015250565b6000612897603083611a0e565b91506128a28261283b565b604082019050919050565b600060208201905081810360008301526128c68161288a565b9050919050565b7f56616c75652073686f756c64206265206e6f6e2d646563696d616c20696e207260008201527f616e6765206f66203020616e6420393900000000000000000000000000000000602082015250565b6000612929603083611a0e565b9150612934826128cd565b604082019050919050565b600060208201905081810360008301526129588161291c565b9050919050565b7f4f6e6c792062757965722063616e206465706f73697420746f20457363726f77600082015250565b6000612995602083611a0e565b91506129a08261295f565b602082019050919050565b600060208201905081810360008301526129c481612988565b9050919050565b7f4465706f736974206973206f6e6c7920616c6c6f776564206f6e2070656e646960008201527f6e6720457363726f770000000000000000000000000000000000000000000000602082015250565b6000612a27602983611a0e565b9150612a32826129cb565b604082019050919050565b60006020820190508181036000830152612a5681612a1a565b9050919050565b7f4465706f736974206d75737420626520657175616c20746f20657363726f772760008201527f73206e656564656420616d6f756e740000000000000000000000000000000000602082015250565b6000612ab9602f83611a0e565b9150612ac482612a5d565b604082019050919050565b60006020820190508181036000830152612ae881612aac565b905091905056fea26469706673582212201c7cb05937409e7a95d188c98aad11aca123d9e749faf4df03fbcd78c22c0cd564736f6c63430008110033",
  "linkReferences": {},
  "deployedLinkReferences": {}
}