{
  "_format": "hh-sol-artifact-1",
  "contractName": "EscrowAgent",
  "sourceName": "contracts/EscrowAgent.sol",
  "abi": [
    {
      "inputs": [],
      "stateMutability": "nonpayable",
      "type": "constructor"
    },
    {
      "anonymous": false,
      "inputs": [
        {
          "indexed": false,
          "internalType": "address",
          "name": "newAgent",
          "type": "address"
        }
      ],
      "name": "AgentChanged",
      "type": "event"
    },
    {
      "anonymous": false,
      "inputs": [
        {
          "indexed": false,
          "internalType": "uint8",
          "name": "newAgentFeePercentage",
          "type": "uint8"
        }
      ],
      "name": "AgentFeePercentageUpdated",
      "type": "event"
    },
    {
      "anonymous": false,
      "inputs": [
        {
          "indexed": false,
          "internalType": "uint256",
          "name": "id",
          "type": "uint256"
        },
        {
          "indexed": false,
          "internalType": "uint256",
          "name": "timestamp",
          "type": "uint256"
        }
      ],
      "name": "EscrowApproved",
      "type": "event"
    },
    {
      "anonymous": false,
      "inputs": [
        {
          "indexed": false,
          "internalType": "uint256",
          "name": "id",
          "type": "uint256"
        },
        {
          "indexed": false,
          "internalType": "uint256",
          "name": "timestamp",
          "type": "uint256"
        }
      ],
      "name": "EscrowArchived",
      "type": "event"
    },
    {
      "anonymous": false,
      "inputs": [
        {
          "indexed": false,
          "internalType": "uint256",
          "name": "id",
          "type": "uint256"
        },
        {
          "indexed": false,
          "internalType": "uint256",
          "name": "timestamp",
          "type": "uint256"
        }
      ],
      "name": "EscrowDeposited",
      "type": "event"
    },
    {
      "anonymous": false,
      "inputs": [
        {
          "indexed": false,
          "internalType": "uint256",
          "name": "id",
          "type": "uint256"
        },
        {
          "indexed": false,
          "internalType": "address",
          "name": "seller",
          "type": "address"
        },
        {
          "indexed": false,
          "internalType": "address",
          "name": "buyer",
          "type": "address"
        },
        {
          "indexed": false,
          "internalType": "uint256",
          "name": "depositAmount",
          "type": "uint256"
        },
        {
          "indexed": false,
          "internalType": "enum EscrowAgent.EscrowStatus",
          "name": "status",
          "type": "uint8"
        },
        {
          "indexed": false,
          "internalType": "uint8",
          "name": "agentFeePercentage",
          "type": "uint8"
        },
        {
          "indexed": false,
          "internalType": "string",
          "name": "description",
          "type": "string"
        },
        {
          "indexed": false,
          "internalType": "uint256",
          "name": "createdAt",
          "type": "uint256"
        },
        {
          "indexed": false,
          "internalType": "uint256",
          "name": "updatedAt",
          "type": "uint256"
        }
      ],
      "name": "EscrowInitiated",
      "type": "event"
    },
    {
      "anonymous": false,
      "inputs": [
        {
          "indexed": false,
          "internalType": "uint256",
          "name": "id",
          "type": "uint256"
        },
        {
          "indexed": false,
          "internalType": "uint256",
          "name": "timestamp",
          "type": "uint256"
        }
      ],
      "name": "EscrowRejected",
      "type": "event"
    },
    {
      "anonymous": false,
      "inputs": [
        {
          "indexed": false,
          "internalType": "uint256",
          "name": "amount",
          "type": "uint256"
        }
      ],
      "name": "FundsWithdrawn",
      "type": "event"
    },
    {
      "inputs": [],
      "name": "agent",
      "outputs": [
        {
          "internalType": "address",
          "name": "",
          "type": "address"
        }
      ],
      "stateMutability": "view",
      "type": "function"
    },
    {
      "inputs": [],
      "name": "agentFeePercentage",
      "outputs": [
        {
          "internalType": "uint8",
          "name": "",
          "type": "uint8"
        }
      ],
      "stateMutability": "view",
      "type": "function"
    },
    {
      "inputs": [
        {
          "internalType": "uint256",
          "name": "_escrowId",
          "type": "uint256"
        }
      ],
      "name": "approveEscrow",
      "outputs": [],
      "stateMutability": "nonpayable",
      "type": "function"
    },
    {
      "inputs": [
        {
          "internalType": "uint256",
          "name": "_escrowId",
          "type": "uint256"
        }
      ],
      "name": "archiveEscrow",
      "outputs": [],
      "stateMutability": "nonpayable",
      "type": "function"
    },
    {
      "inputs": [
        {
          "internalType": "address",
          "name": "_newAgent",
          "type": "address"
        }
      ],
      "name": "changeAgent",
      "outputs": [],
      "stateMutability": "nonpayable",
      "type": "function"
    },
    {
      "inputs": [
        {
          "internalType": "uint8",
          "name": "_newFeePercentage",
          "type": "uint8"
        }
      ],
      "name": "changeAgentFeePercentage",
      "outputs": [],
      "stateMutability": "nonpayable",
      "type": "function"
    },
    {
      "inputs": [
        {
          "internalType": "uint256",
          "name": "_escrowId",
          "type": "uint256"
        }
      ],
      "name": "depositEscrow",
      "outputs": [],
      "stateMutability": "payable",
      "type": "function"
    },
    {
      "inputs": [
        {
          "internalType": "uint256",
          "name": "",
          "type": "uint256"
        }
      ],
      "name": "escrows",
      "outputs": [
        {
          "internalType": "uint256",
          "name": "id",
          "type": "uint256"
        },
        {
          "internalType": "address",
          "name": "seller",
          "type": "address"
        },
        {
          "internalType": "address",
          "name": "buyer",
          "type": "address"
        },
        {
          "internalType": "uint256",
          "name": "depositAmount",
          "type": "uint256"
        },
        {
          "internalType": "enum EscrowAgent.EscrowStatus",
          "name": "status",
          "type": "uint8"
        },
        {
          "internalType": "uint8",
          "name": "agentFeePercentage",
          "type": "uint8"
        },
        {
          "internalType": "string",
          "name": "description",
          "type": "string"
        },
        {
          "internalType": "uint256",
          "name": "createdAt",
          "type": "uint256"
        },
        {
          "internalType": "uint256",
          "name": "updatedAt",
          "type": "uint256"
        }
      ],
      "stateMutability": "view",
      "type": "function"
    },
    {
      "inputs": [],
      "name": "getAllEscrows",
      "outputs": [
        {
          "components": [
            {
              "internalType": "uint256",
              "name": "id",
              "type": "uint256"
            },
            {
              "internalType": "address",
              "name": "seller",
              "type": "address"
            },
            {
              "internalType": "address",
              "name": "buyer",
              "type": "address"
            },
            {
              "internalType": "uint256",
              "name": "depositAmount",
              "type": "uint256"
            },
            {
              "internalType": "enum EscrowAgent.EscrowStatus",
              "name": "status",
              "type": "uint8"
            },
            {
              "internalType": "uint8",
              "name": "agentFeePercentage",
              "type": "uint8"
            },
            {
              "internalType": "string",
              "name": "description",
              "type": "string"
            },
            {
              "internalType": "uint256",
              "name": "createdAt",
              "type": "uint256"
            },
            {
              "internalType": "uint256",
              "name": "updatedAt",
              "type": "uint256"
            }
          ],
          "internalType": "struct EscrowAgent.Escrow[]",
          "name": "",
          "type": "tuple[]"
        }
      ],
      "stateMutability": "view",
      "type": "function"
    },
    {
      "inputs": [
        {
          "internalType": "uint256",
          "name": "_escrowId",
          "type": "uint256"
        }
      ],
      "name": "getEscrowById",
      "outputs": [
        {
          "components": [
            {
              "internalType": "uint256",
              "name": "id",
              "type": "uint256"
            },
            {
              "internalType": "address",
              "name": "seller",
              "type": "address"
            },
            {
              "internalType": "address",
              "name": "buyer",
              "type": "address"
            },
            {
              "internalType": "uint256",
              "name": "depositAmount",
              "type": "uint256"
            },
            {
              "internalType": "enum EscrowAgent.EscrowStatus",
              "name": "status",
              "type": "uint8"
            },
            {
              "internalType": "uint8",
              "name": "agentFeePercentage",
              "type": "uint8"
            },
            {
              "internalType": "string",
              "name": "description",
              "type": "string"
            },
            {
              "internalType": "uint256",
              "name": "createdAt",
              "type": "uint256"
            },
            {
              "internalType": "uint256",
              "name": "updatedAt",
              "type": "uint256"
            }
          ],
          "internalType": "struct EscrowAgent.Escrow",
          "name": "",
          "type": "tuple"
        }
      ],
      "stateMutability": "view",
      "type": "function"
    },
    {
      "inputs": [
        {
          "internalType": "address",
          "name": "_seller",
          "type": "address"
        },
        {
          "internalType": "address",
          "name": "_buyer",
          "type": "address"
        },
        {
          "internalType": "uint256",
          "name": "_depositAmount",
          "type": "uint256"
        },
        {
          "internalType": "string",
          "name": "_description",
          "type": "string"
        }
      ],
      "name": "initiateEscrow",
      "outputs": [],
      "stateMutability": "nonpayable",
      "type": "function"
    },
    {
      "inputs": [
        {
          "internalType": "uint256",
          "name": "_escrowId",
          "type": "uint256"
        }
      ],
      "name": "rejectEscrow",
      "outputs": [],
      "stateMutability": "nonpayable",
      "type": "function"
    },
    {
      "inputs": [],
      "name": "withdrawFunds",
      "outputs": [],
      "stateMutability": "nonpayable",
      "type": "function"
    },
    {
      "inputs": [],
      "name": "withdrawableFunds",
      "outputs": [
        {
          "internalType": "uint256",
          "name": "",
          "type": "uint256"
        }
      ],
      "stateMutability": "view",
      "type": "function"
    }
  ],
  "bytecode": "0x6080604052600a600060146101000a81548160ff021916908360ff16021790555034801561002c57600080fd5b50336000806101000a81548173ffffffffffffffffffffffffffffffffffffffff021916908373ffffffffffffffffffffffffffffffffffffffff160217905550612bcc8061007c6000396000f3fe6080604052600436106100dd5760003560e01c806369e36beb1161007f5780639a6ac36f116100595780639a6ac36f1461029c578063cb991efe146102c7578063e617ea5c146102e3578063f5ff5c761461030e576100dd565b806369e36beb1461021f57806375aab3311461024a5780639818953914610273576100dd565b806324600fc3116100bb57806324600fc31461018d5780633416a006146101a4578063398ab773146101cd57806357f032e7146101f6576100dd565b8063012f52ee146100e257806303fce7ef1461012757806320ca041814610150575b600080fd5b3480156100ee57600080fd5b506101096004803603810190610104919061199a565b610339565b60405161011e99989796959493929190611b3a565b60405180910390f35b34801561013357600080fd5b5061014e6004803603810190610149919061199a565b610479565b005b34801561015c57600080fd5b506101776004803603810190610172919061199a565b610746565b6040516101849190611d19565b60405180910390f35b34801561019957600080fd5b506101a2610941565b005b3480156101b057600080fd5b506101cb60048036038101906101c69190611e9c565b610ae2565b005b3480156101d957600080fd5b506101f460048036038101906101ef919061199a565b610e2b565b005b34801561020257600080fd5b5061021d60048036038101906102189190611f1f565b610fca565b005b34801561022b57600080fd5b506102346110d2565b6040516102419190611f4c565b60405180910390f35b34801561025657600080fd5b50610271600480360381019061026c919061199a565b6110e5565b005b34801561027f57600080fd5b5061029a60048036038101906102959190611f93565b611359565b005b3480156102a857600080fd5b506102b1611492565b6040516102be9190612147565b60405180910390f35b6102e160048036038101906102dc919061199a565b6116b0565b005b3480156102ef57600080fd5b506102f8611899565b6040516103059190612169565b60405180910390f35b34801561031a57600080fd5b5061032361189f565b6040516103309190612184565b60405180910390f35b6002818154811061034957600080fd5b90600052602060002090600802016000915090508060000154908060010160009054906101000a900473ffffffffffffffffffffffffffffffffffffffff16908060020160009054906101000a900473ffffffffffffffffffffffffffffffffffffffff16908060030154908060040160009054906101000a900460ff16908060040160019054906101000a900460ff16908060050180546103ea906121ce565b80601f0160208091040260200160405190810160405280929190818152602001828054610416906121ce565b80156104635780601f1061043857610100808354040283529160200191610463565b820191906000526020600020905b81548152906001019060200180831161044657829003601f168201915b5050505050908060060154908060070154905089565b60008054906101000a900473ffffffffffffffffffffffffffffffffffffffff1673ffffffffffffffffffffffffffffffffffffffff163373ffffffffffffffffffffffffffffffffffffffff1614610507576040517f08c379a00000000000000000000000000000000000000000000000000000000081526004016104fe90612271565b60405180910390fd5b60006002828154811061051d5761051c612291565b5b906000526020600020906008020190506001600481111561054157610540611a17565b5b8160040160009054906101000a900460ff16600481111561056557610564611a17565b5b146105a5576040517f08c379a000000000000000000000000000000000000000000000000000000000815260040161059c90612332565b60405180910390fd5b600060648260040160019054906101000a900460ff1660ff1683600301546105cd9190612381565b6105d791906123f2565b905060008260010160009054906101000a900473ffffffffffffffffffffffffffffffffffffffff1673ffffffffffffffffffffffffffffffffffffffff168284600301546106269190612423565b60405161063290612488565b60006040518083038185875af1925050503d806000811461066f576040519150601f19603f3d011682016040523d82523d6000602084013e610674565b606091505b50509050806106b8576040517f08c379a00000000000000000000000000000000000000000000000000000000081526004016106af906124e9565b60405180910390fd5b60028360040160006101000a81548160ff021916908360048111156106e0576106df611a17565b5b021790555042836007018190555081600160008282546107009190612509565b925050819055507f599da1658702c24a94818de06b47dcb625541f89b8d6077f376527447de8aa5e844260405161073892919061253d565b60405180910390a150505050565b61074e6118c3565b6002828154811061076257610761612291565b5b906000526020600020906008020160405180610120016040529081600082015481526020016001820160009054906101000a900473ffffffffffffffffffffffffffffffffffffffff1673ffffffffffffffffffffffffffffffffffffffff1673ffffffffffffffffffffffffffffffffffffffff1681526020016002820160009054906101000a900473ffffffffffffffffffffffffffffffffffffffff1673ffffffffffffffffffffffffffffffffffffffff1673ffffffffffffffffffffffffffffffffffffffff168152602001600382015481526020016004820160009054906101000a900460ff16600481111561086157610860611a17565b5b600481111561087357610872611a17565b5b81526020016004820160019054906101000a900460ff1660ff1660ff1681526020016005820180546108a4906121ce565b80601f01602080910402602001604051908101604052809291908181526020018280546108d0906121ce565b801561091d5780601f106108f25761010080835404028352916020019161091d565b820191906000526020600020905b81548152906001019060200180831161090057829003601f168201915b50505050508152602001600682015481526020016007820154815250509050919050565b60008054906101000a900473ffffffffffffffffffffffffffffffffffffffff1673ffffffffffffffffffffffffffffffffffffffff163373ffffffffffffffffffffffffffffffffffffffff16146109cf576040517f08c379a00000000000000000000000000000000000000000000000000000000081526004016109c690612271565b60405180910390fd5b60008060009054906101000a900473ffffffffffffffffffffffffffffffffffffffff1673ffffffffffffffffffffffffffffffffffffffff16600154604051610a1890612488565b60006040518083038185875af1925050503d8060008114610a55576040519150601f19603f3d011682016040523d82523d6000602084013e610a5a565b606091505b5050905080610a9e576040517f08c379a0000000000000000000000000000000000000000000000000000000008152600401610a95906124e9565b60405180910390fd5b60006001819055507f4a37b25aab49761ecf63117fe82b98d750917451133cf797507bc9fb5b96044a600154604051610ad79190612169565b60405180910390a150565b60008054906101000a900473ffffffffffffffffffffffffffffffffffffffff1673ffffffffffffffffffffffffffffffffffffffff163373ffffffffffffffffffffffffffffffffffffffff1614610b70576040517f08c379a0000000000000000000000000000000000000000000000000000000008152600401610b6790612271565b60405180910390fd5b83838073ffffffffffffffffffffffffffffffffffffffff168273ffffffffffffffffffffffffffffffffffffffff1603610be0576040517f08c379a0000000000000000000000000000000000000000000000000000000008152600401610bd7906125d8565b60405180910390fd5b6000600280549050905060006040518061012001604052808381526020018973ffffffffffffffffffffffffffffffffffffffff1681526020018873ffffffffffffffffffffffffffffffffffffffff16815260200187815260200160006004811115610c5057610c4f611a17565b5b8152602001600060149054906101000a900460ff1660ff16815260200186815260200142815260200142815250905060028190806001815401808255809150506001900390600052602060002090600802016000909190919091506000820151816000015560208201518160010160006101000a81548173ffffffffffffffffffffffffffffffffffffffff021916908373ffffffffffffffffffffffffffffffffffffffff16021790555060408201518160020160006101000a81548173ffffffffffffffffffffffffffffffffffffffff021916908373ffffffffffffffffffffffffffffffffffffffff1602179055506060820151816003015560808201518160040160006101000a81548160ff02191690836004811115610d7857610d77611a17565b5b021790555060a08201518160040160016101000a81548160ff021916908360ff16021790555060c0820151816005019081610db391906127a4565b5060e08201518160060155610100820151816007015550507f28a12777f585b698de880b91f9c278768de172e5d74f3f5202198beb60e6d0768289898960008060149054906101000a900460ff168b4242604051610e1999989796959493929190611b3a565b60405180910390a15050505050505050565b60008054906101000a900473ffffffffffffffffffffffffffffffffffffffff1673ffffffffffffffffffffffffffffffffffffffff163373ffffffffffffffffffffffffffffffffffffffff1614610eb9576040517f08c379a0000000000000000000000000000000000000000000000000000000008152600401610eb090612271565b60405180910390fd5b600060028281548110610ecf57610ece612291565b5b9060005260206000209060080201905060006004811115610ef357610ef2611a17565b5b8160040160009054906101000a900460ff166004811115610f1757610f16611a17565b5b14610f57576040517f08c379a0000000000000000000000000000000000000000000000000000000008152600401610f4e906128c2565b60405180910390fd5b60048160040160006101000a81548160ff02191690836004811115610f7f57610f7e611a17565b5b02179055504281600701819055507ff7f67bfa0cb6f4f063d06fc242568b74a8e5cd03190e3b30a19fc552e0e46cee8242604051610fbe92919061253d565b60405180910390a15050565b60008054906101000a900473ffffffffffffffffffffffffffffffffffffffff1673ffffffffffffffffffffffffffffffffffffffff163373ffffffffffffffffffffffffffffffffffffffff1614611058576040517f08c379a000000000000000000000000000000000000000000000000000000000815260040161104f90612271565b60405180910390fd5b806000806101000a81548173ffffffffffffffffffffffffffffffffffffffff021916908373ffffffffffffffffffffffffffffffffffffffff1602179055507f4a2e63eb36ad3c667a1d8d1b18dfbf37d06f96b46b82b526a855175916515add816040516110c79190612184565b60405180910390a150565b600060149054906101000a900460ff1681565b60008054906101000a900473ffffffffffffffffffffffffffffffffffffffff1673ffffffffffffffffffffffffffffffffffffffff163373ffffffffffffffffffffffffffffffffffffffff1614611173576040517f08c379a000000000000000000000000000000000000000000000000000000000815260040161116a90612271565b60405180910390fd5b60006002828154811061118957611188612291565b5b90600052602060002090600802019050600160048111156111ad576111ac611a17565b5b8160040160009054906101000a900460ff1660048111156111d1576111d0611a17565b5b14611211576040517f08c379a000000000000000000000000000000000000000000000000000000000815260040161120890612954565b60405180910390fd5b60008160020160009054906101000a900473ffffffffffffffffffffffffffffffffffffffff1673ffffffffffffffffffffffffffffffffffffffff16826003015460405161125f90612488565b60006040518083038185875af1925050503d806000811461129c576040519150601f19603f3d011682016040523d82523d6000602084013e6112a1565b606091505b50509050806112e5576040517f08c379a00000000000000000000000000000000000000000000000000000000081526004016112dc906124e9565b60405180910390fd5b60038260040160006101000a81548160ff0219169083600481111561130d5761130c611a17565b5b02179055504282600701819055507ffbb49e2b5bd06a60b782133381f3685f5bbea5e8ae7c46023169cd734d8bc2ac834260405161134c92919061253d565b60405180910390a1505050565b60008054906101000a900473ffffffffffffffffffffffffffffffffffffffff1673ffffffffffffffffffffffffffffffffffffffff163373ffffffffffffffffffffffffffffffffffffffff16146113e7576040517f08c379a00000000000000000000000000000000000000000000000000000000081526004016113de90612271565b60405180910390fd5b60008160ff16101580156113fe575060648160ff16105b61143d576040517f08c379a0000000000000000000000000000000000000000000000000000000008152600401611434906129e6565b60405180910390fd5b80600060146101000a81548160ff021916908360ff1602179055507fce7d01952d08f1136c73e6e86104a39c291e9eddec4df66e861482c52656aab6816040516114879190611f4c565b60405180910390a150565b60606002805480602002602001604051908101604052809291908181526020016000905b828210156116a7578382906000526020600020906008020160405180610120016040529081600082015481526020016001820160009054906101000a900473ffffffffffffffffffffffffffffffffffffffff1673ffffffffffffffffffffffffffffffffffffffff1673ffffffffffffffffffffffffffffffffffffffff1681526020016002820160009054906101000a900473ffffffffffffffffffffffffffffffffffffffff1673ffffffffffffffffffffffffffffffffffffffff1673ffffffffffffffffffffffffffffffffffffffff168152602001600382015481526020016004820160009054906101000a900460ff1660048111156115bf576115be611a17565b5b60048111156115d1576115d0611a17565b5b81526020016004820160019054906101000a900460ff1660ff1660ff168152602001600582018054611602906121ce565b80601f016020809104026020016040519081016040528092919081815260200182805461162e906121ce565b801561167b5780601f106116505761010080835404028352916020019161167b565b820191906000526020600020905b81548152906001019060200180831161165e57829003601f168201915b5050505050815260200160068201548152602001600782015481525050815260200190600101906114b6565b50505050905090565b6000600282815481106116c6576116c5612291565b5b906000526020600020906008020190508060020160009054906101000a900473ffffffffffffffffffffffffffffffffffffffff1673ffffffffffffffffffffffffffffffffffffffff163373ffffffffffffffffffffffffffffffffffffffff1614611768576040517f08c379a000000000000000000000000000000000000000000000000000000000815260040161175f90612a52565b60405180910390fd5b6000600481111561177c5761177b611a17565b5b8160040160009054906101000a900460ff1660048111156117a05761179f611a17565b5b146117e0576040517f08c379a00000000000000000000000000000000000000000000000000000000081526004016117d790612ae4565b60405180910390fd5b80600301543414611826576040517f08c379a000000000000000000000000000000000000000000000000000000000815260040161181d90612b76565b60405180910390fd5b60018160040160006101000a81548160ff0219169083600481111561184e5761184d611a17565b5b02179055504281600701819055507fd3c221d5b0aba10ecbafdafc16a948672d7d45a8dcb069038786f81a75e06575824260405161188d92919061253d565b60405180910390a15050565b60015481565b60008054906101000a900473ffffffffffffffffffffffffffffffffffffffff1681565b60405180610120016040528060008152602001600073ffffffffffffffffffffffffffffffffffffffff168152602001600073ffffffffffffffffffffffffffffffffffffffff168152602001600081526020016000600481111561192b5761192a611a17565b5b8152602001600060ff1681526020016060815260200160008152602001600081525090565b6000604051905090565b600080fd5b600080fd5b6000819050919050565b61197781611964565b811461198257600080fd5b50565b6000813590506119948161196e565b92915050565b6000602082840312156119b0576119af61195a565b5b60006119be84828501611985565b91505092915050565b6119d081611964565b82525050565b600073ffffffffffffffffffffffffffffffffffffffff82169050919050565b6000611a01826119d6565b9050919050565b611a11816119f6565b82525050565b7f4e487b7100000000000000000000000000000000000000000000000000000000600052602160045260246000fd5b60058110611a5757611a56611a17565b5b50565b6000819050611a6882611a46565b919050565b6000611a7882611a5a565b9050919050565b611a8881611a6d565b82525050565b600060ff82169050919050565b611aa481611a8e565b82525050565b600081519050919050565b600082825260208201905092915050565b60005b83811015611ae4578082015181840152602081019050611ac9565b60008484015250505050565b6000601f19601f8301169050919050565b6000611b0c82611aaa565b611b168185611ab5565b9350611b26818560208601611ac6565b611b2f81611af0565b840191505092915050565b600061012082019050611b50600083018c6119c7565b611b5d602083018b611a08565b611b6a604083018a611a08565b611b7760608301896119c7565b611b846080830188611a7f565b611b9160a0830187611a9b565b81810360c0830152611ba38186611b01565b9050611bb260e08301856119c7565b611bc06101008301846119c7565b9a9950505050505050505050565b611bd781611964565b82525050565b611be6816119f6565b82525050565b611bf581611a6d565b82525050565b611c0481611a8e565b82525050565b600082825260208201905092915050565b6000611c2682611aaa565b611c308185611c0a565b9350611c40818560208601611ac6565b611c4981611af0565b840191505092915050565b600061012083016000830151611c6d6000860182611bce565b506020830151611c806020860182611bdd565b506040830151611c936040860182611bdd565b506060830151611ca66060860182611bce565b506080830151611cb96080860182611bec565b5060a0830151611ccc60a0860182611bfb565b5060c083015184820360c0860152611ce48282611c1b565b91505060e0830151611cf960e0860182611bce565b50610100830151611d0e610100860182611bce565b508091505092915050565b60006020820190508181036000830152611d338184611c54565b905092915050565b611d44816119f6565b8114611d4f57600080fd5b50565b600081359050611d6181611d3b565b92915050565b600080fd5b600080fd5b7f4e487b7100000000000000000000000000000000000000000000000000000000600052604160045260246000fd5b611da982611af0565b810181811067ffffffffffffffff82111715611dc857611dc7611d71565b5b80604052505050565b6000611ddb611950565b9050611de78282611da0565b919050565b600067ffffffffffffffff821115611e0757611e06611d71565b5b611e1082611af0565b9050602081019050919050565b82818337600083830152505050565b6000611e3f611e3a84611dec565b611dd1565b905082815260208101848484011115611e5b57611e5a611d6c565b5b611e66848285611e1d565b509392505050565b600082601f830112611e8357611e82611d67565b5b8135611e93848260208601611e2c565b91505092915050565b60008060008060808587031215611eb657611eb561195a565b5b6000611ec487828801611d52565b9450506020611ed587828801611d52565b9350506040611ee687828801611985565b925050606085013567ffffffffffffffff811115611f0757611f0661195f565b5b611f1387828801611e6e565b91505092959194509250565b600060208284031215611f3557611f3461195a565b5b6000611f4384828501611d52565b91505092915050565b6000602082019050611f616000830184611a9b565b92915050565b611f7081611a8e565b8114611f7b57600080fd5b50565b600081359050611f8d81611f67565b92915050565b600060208284031215611fa957611fa861195a565b5b6000611fb784828501611f7e565b91505092915050565b600081519050919050565b600082825260208201905092915050565b6000819050602082019050919050565b6000610120830160008301516120056000860182611bce565b5060208301516120186020860182611bdd565b50604083015161202b6040860182611bdd565b50606083015161203e6060860182611bce565b5060808301516120516080860182611bec565b5060a083015161206460a0860182611bfb565b5060c083015184820360c086015261207c8282611c1b565b91505060e083015161209160e0860182611bce565b506101008301516120a6610100860182611bce565b508091505092915050565b60006120bd8383611fec565b905092915050565b6000602082019050919050565b60006120dd82611fc0565b6120e78185611fcb565b9350836020820285016120f985611fdc565b8060005b85811015612135578484038952815161211685826120b1565b9450612121836120c5565b925060208a019950506001810190506120fd565b50829750879550505050505092915050565b6000602082019050818103600083015261216181846120d2565b905092915050565b600060208201905061217e60008301846119c7565b92915050565b60006020820190506121996000830184611a08565b92915050565b7f4e487b7100000000000000000000000000000000000000000000000000000000600052602260045260246000fd5b600060028204905060018216806121e657607f821691505b6020821081036121f9576121f861219f565b5b50919050565b7f4f6e6c79204167656e742063616e2063616c6c20746869732066756e6374696f60008201527f6e00000000000000000000000000000000000000000000000000000000000000602082015250565b600061225b602183611ab5565b9150612266826121ff565b604082019050919050565b6000602082019050818103600083015261228a8161224e565b9050919050565b7f4e487b7100000000000000000000000000000000000000000000000000000000600052603260045260246000fd5b7f596f752063616e206f6e6c7920617070726f766520457363726f77207769746860008201527f206465706f736974656420737461747573000000000000000000000000000000602082015250565b600061231c603183611ab5565b9150612327826122c0565b604082019050919050565b6000602082019050818103600083015261234b8161230f565b9050919050565b7f4e487b7100000000000000000000000000000000000000000000000000000000600052601160045260246000fd5b600061238c82611964565b915061239783611964565b92508282026123a581611964565b915082820484148315176123bc576123bb612352565b5b5092915050565b7f4e487b7100000000000000000000000000000000000000000000000000000000600052601260045260246000fd5b60006123fd82611964565b915061240883611964565b925082612418576124176123c3565b5b828204905092915050565b600061242e82611964565b915061243983611964565b925082820390508181111561245157612450612352565b5b92915050565b600081905092915050565b50565b6000612472600083612457565b915061247d82612462565b600082019050919050565b600061249382612465565b9150819050919050565b7f4661696c656420746f2073656e64204574686572000000000000000000000000600082015250565b60006124d3601483611ab5565b91506124de8261249d565b602082019050919050565b60006020820190508181036000830152612502816124c6565b9050919050565b600061251482611964565b915061251f83611964565b925082820190508082111561253757612536612352565b5b92915050565b600060408201905061255260008301856119c7565b61255f60208301846119c7565b9392505050565b7f427579657220616e642053656c6c65722073686f756c6420626520446966666560008201527f72656e7400000000000000000000000000000000000000000000000000000000602082015250565b60006125c2602483611ab5565b91506125cd82612566565b604082019050919050565b600060208201905081810360008301526125f1816125b5565b9050919050565b60008190508160005260206000209050919050565b60006020601f8301049050919050565b600082821b905092915050565b60006008830261265a7fffffffffffffffffffffffffffffffffffffffffffffffffffffffffffffffff8261261d565b612664868361261d565b95508019841693508086168417925050509392505050565b6000819050919050565b60006126a161269c61269784611964565b61267c565b611964565b9050919050565b6000819050919050565b6126bb83612686565b6126cf6126c7826126a8565b84845461262a565b825550505050565b600090565b6126e46126d7565b6126ef8184846126b2565b505050565b5b81811015612713576127086000826126dc565b6001810190506126f5565b5050565b601f82111561275857612729816125f8565b6127328461260d565b81016020851015612741578190505b61275561274d8561260d565b8301826126f4565b50505b505050565b600082821c905092915050565b600061277b6000198460080261275d565b1980831691505092915050565b6000612794838361276a565b9150826002028217905092915050565b6127ad82611aaa565b67ffffffffffffffff8111156127c6576127c5611d71565b5b6127d082546121ce565b6127db828285612717565b600060209050601f83116001811461280e57600084156127fc578287015190505b6128068582612788565b86555061286e565b601f19841661281c866125f8565b60005b828110156128445784890151825560018201915060208501945060208101905061281f565b86831015612861578489015161285d601f89168261276a565b8355505b6001600288020188555050505b505050505050565b7f43616e277420617263686976652061637469766520457363726f770000000000600082015250565b60006128ac601b83611ab5565b91506128b782612876565b602082019050919050565b600060208201905081810360008301526128db8161289f565b9050919050565b7f596f752063616e206f6e6c792072656a65637420457363726f7720776974682060008201527f6465706f73697465642073746174757300000000000000000000000000000000602082015250565b600061293e603083611ab5565b9150612949826128e2565b604082019050919050565b6000602082019050818103600083015261296d81612931565b9050919050565b7f56616c75652073686f756c64206265206e6f6e2d646563696d616c20696e207260008201527f616e6765206f66203020616e6420393900000000000000000000000000000000602082015250565b60006129d0603083611ab5565b91506129db82612974565b604082019050919050565b600060208201905081810360008301526129ff816129c3565b9050919050565b7f4f6e6c792062757965722063616e206465706f73697420746f20457363726f77600082015250565b6000612a3c602083611ab5565b9150612a4782612a06565b602082019050919050565b60006020820190508181036000830152612a6b81612a2f565b9050919050565b7f4465706f736974206973206f6e6c7920616c6c6f776564206f6e2070656e646960008201527f6e6720457363726f770000000000000000000000000000000000000000000000602082015250565b6000612ace602983611ab5565b9150612ad982612a72565b604082019050919050565b60006020820190508181036000830152612afd81612ac1565b9050919050565b7f4465706f736974206d75737420626520657175616c20746f20657363726f772760008201527f73206e656564656420616d6f756e740000000000000000000000000000000000602082015250565b6000612b60602f83611ab5565b9150612b6b82612b04565b604082019050919050565b60006020820190508181036000830152612b8f81612b53565b905091905056fea2646970667358221220af1efa8f64b492c562894fe66b9f53192df82708b36715812c1aed0603b003a964736f6c63430008110033",
  "linkReferences": {},
  "deployedLinkReferences": {}
}